{
    "contractName": "Transacciones",
    "abi": [
        {
            "anonymous": false,
            "inputs": [
                {
                    "indexed": true,
                    "internalType": "address",
                    "name": "productor",
                    "type": "address"
                },
                {
                    "indexed": false,
                    "internalType": "uint32",
                    "name": "precio",
                    "type": "uint32"
                },
                {
                    "indexed": false,
                    "internalType": "uint64",
                    "name": "energia",
                    "type": "uint64"
                },
                {
                    "indexed": false,
                    "internalType": "address",
                    "name": "usuarioAddress",
                    "type": "address"
                }
            ],
            "name": "eventoCompra",
            "type": "event"
        },
        {
            "anonymous": false,
            "inputs": [
                {
                    "indexed": true,
                    "internalType": "address",
                    "name": "productor",
                    "type": "address"
                },
                {
                    "indexed": true,
                    "internalType": "uint32",
                    "name": "precio",
                    "type": "uint32"
                },
                {
                    "indexed": false,
                    "internalType": "uint64",
                    "name": "energia",
                    "type": "uint64"
                }
            ],
            "name": "eventoVenta",
            "type": "event"
        },
        {
            "inputs": [
                {
                    "internalType": "address",
                    "name": "productorCompra",
                    "type": "address"
                },
                {
                    "internalType": "uint32",
                    "name": "precioCompra",
                    "type": "uint32"
                },
                {
                    "internalType": "uint64",
                    "name": "energiaComprada",
                    "type": "uint64"
                },
                {
                    "internalType": "address",
                    "name": "addressComprador",
                    "type": "address"
                },
                {
                    "internalType": "uint64",
                    "name": "fechaCompra",
                    "type": "uint64"
                }
            ],
            "name": "comprarEnergia",
            "outputs": [],
            "stateMutability": "nonpayable",
            "type": "function"
        },
        {
            "inputs": [],
            "name": "direccionProductor",
            "outputs": [
                {
                    "internalType": "address",
                    "name": "",
                    "type": "address"
                }
            ],
            "stateMutability": "view",
            "type": "function"
        },
        {
            "inputs": [
                {
                    "internalType": "uint256",
                    "name": "",
                    "type": "uint256"
                }
            ],
            "name": "energiaProducida",
            "outputs": [
                {
                    "internalType": "address",
                    "name": "productor",
                    "type": "address"
                },
                {
                    "internalType": "uint32",
                    "name": "precio",
                    "type": "uint32"
                },
                {
                    "internalType": "uint64",
                    "name": "energia",
                    "type": "uint64"
                },
                {
                    "internalType": "address",
                    "name": "usuarioAddress",
                    "type": "address"
                },
                {
                    "internalType": "uint64",
                    "name": "timestamp",
                    "type": "uint64"
                }
            ],
            "stateMutability": "view",
            "type": "function"
        },
        {
            "inputs": [
                {
                    "internalType": "address",
                    "name": "",
                    "type": "address"
                }
            ],
            "name": "indiceCompra",
            "outputs": [
                {
                    "internalType": "uint256",
                    "name": "",
                    "type": "uint256"
                }
            ],
            "stateMutability": "view",
            "type": "function"
        },
        {
            "inputs": [
                {
                    "internalType": "address",
                    "name": "",
                    "type": "address"
                }
            ],
            "name": "indiceVenta",
            "outputs": [
                {
                    "internalType": "uint256",
                    "name": "",
                    "type": "uint256"
                }
            ],
            "stateMutability": "view",
            "type": "function"
        },
        {
            "inputs": [
                {
                    "internalType": "uint256",
                    "name": "",
                    "type": "uint256"
                }
            ],
            "name": "ordenesCompra",
            "outputs": [
                {
                    "internalType": "address",
                    "name": "productor",
                    "type": "address"
                },
                {
                    "internalType": "uint32",
                    "name": "precio",
                    "type": "uint32"
                },
                {
                    "internalType": "uint64",
                    "name": "energia",
                    "type": "uint64"
                },
                {
                    "internalType": "address",
                    "name": "usuarioAddress",
                    "type": "address"
                },
                {
                    "internalType": "uint64",
                    "name": "timestamp",
                    "type": "uint64"
                }
            ],
            "stateMutability": "view",
            "type": "function"
        },
        {
            "inputs": [
                {
                    "internalType": "uint256",
                    "name": "",
                    "type": "uint256"
                }
            ],
            "name": "ordenesVenta",
            "outputs": [
                {
                    "internalType": "address",
                    "name": "productor",
                    "type": "address"
                },
                {
                    "internalType": "uint32",
                    "name": "precio",
                    "type": "uint32"
                },
                {
                    "internalType": "uint64",
                    "name": "energia",
                    "type": "uint64"
                },
                {
                    "internalType": "uint64",
                    "name": "timestamp",
                    "type": "uint64"
                }
            ],
            "stateMutability": "view",
            "type": "function"
        },
        {
            "inputs": [],
            "name": "registrar",
            "outputs": [],
            "stateMutability": "payable",
            "type": "function"
        },
        {
            "inputs": [
                {
                    "internalType": "uint256",
                    "name": "",
                    "type": "uint256"
                }
            ],
            "name": "usuario",
            "outputs": [
                {
                    "internalType": "address",
                    "name": "",
                    "type": "address"
                }
            ],
            "stateMutability": "view",
            "type": "function"
        },
        {
            "inputs": [
                {
                    "internalType": "uint32",
                    "name": "precioVenta",
                    "type": "uint32"
                },
                {
                    "internalType": "uint64",
                    "name": "energiaGenerada",
                    "type": "uint64"
                },
                {
                    "internalType": "uint64",
                    "name": "timestampVenta",
                    "type": "uint64"
                }
            ],
            "name": "venderEnergia",
            "outputs": [],
            "stateMutability": "nonpayable",
            "type": "function"
        }
    ],
    "bytecode": "6080604052600480546001600160a01b03191673ab2143d2c4c336a2c7722940d41ef33cd1b6857317905534801561003657600080fd5b50610b57806100466000396000f3fe6080604052600436106100915760003560e01c80636e7c3a71116100595780636e7c3a711461017f578063724df77e146101e4578063869ddd421461021c5780639e0025771461023c578063b3ab499b1461025c57600080fd5b80632b20e397146100965780634adfbb03146100a057806351d7c9b0146100c05780635ccc0e83146101245780636c8604351461015f575b600080fd5b61009e610289565b005b3480156100ac57600080fd5b5061009e6100bb366004610a28565b6102f7565b3480156100cc57600080fd5b506100e06100db366004610a8d565b6106d3565b604080516001600160a01b03909516855263ffffffff909316602085015267ffffffffffffffff918216928401929092521660608201526080015b60405180910390f35b34801561013057600080fd5b5061015161013f366004610aa6565b60076020526000908152604090205481565b60405190815260200161011b565b34801561016b57600080fd5b5061009e61017a366004610ac8565b61072d565b34801561018b57600080fd5b5061019f61019a366004610a8d565b610942565b604080516001600160a01b03968716815263ffffffff909516602086015267ffffffffffffffff9384169085015293166060830152909116608082015260a00161011b565b3480156101f057600080fd5b50600454610204906001600160a01b031681565b6040516001600160a01b03909116815260200161011b565b34801561022857600080fd5b50610204610237366004610a8d565b6109a6565b34801561024857600080fd5b5061019f610257366004610a8d565b6109d0565b34801561026857600080fd5b50610151610277366004610aa6565b60066020526000908152604090205481565b66038d7ea4c68000341161029c57600080fd5b336000818152602081905260408120805460ff191660019081179091558054808201825591527fb10e2d527612073b26eecdfd717e6a320cf44b4afac2b0732d9fcbe2b7fa0cf60180546001600160a01b0319169091179055565b3360009081526020819052604090205460ff16151560011461031857600080fd5b6001600160a01b0385166000908152600660205260409020548061033b57600080fd5b600254811080156103805750856001600160a01b03166002828154811061036457610364610b0b565b60009182526020909120600290910201546001600160a01b0316145b15610091578463ffffffff166002828154811061039f5761039f610b0b565b6000918252602090912060029091020154600160a01b900463ffffffff161480156103d0575060008563ffffffff16115b80156103e7575060018467ffffffffffffffff1610155b6103f057600080fd5b60038054336000908152600760209081526040808320849055805160a0810182526001600160a01b038c811680835263ffffffff808e1695840195865267ffffffffffffffff808e168587019081528d8516606087019081528d83166080880190815260018c018d559b909952945160029099027fc2575a0e9e593c00f959f8c92f12db2869c3395a3b0502d05e2516446f71f85b81018054985196518316600160c01b026001600160c01b0397909416600160a01b9081026001600160c01b0319909a169b87169b909b1798909817959095169190911790955594517fc2575a0e9e593c00f959f8c92f12db2869c3395a3b0502d05e2516446f71f85c909201805497519094169095026001600160e01b031990961694169390931793909317909255517ff55ec0483cae28f3b6e57ad12f7a04395943eefc63b4bf402e137b7ebc6b1cf8906105729088908890889063ffffffff93909316835267ffffffffffffffff9190911660208301526001600160a01b0316604082015260600190565b60405180910390a2600454600380546001600160a01b03909216918390811061059d5761059d610b0b565b60009182526020909120600290910201546001600160a01b0316146105c157600080fd5b506040805160a0810182526001600160a01b03968716815263ffffffff9586166020820190815267ffffffffffffffff958616928201928352938716606082019081529285166080820190815260058054600181018255600091909152915160029092027f036b6384b5eca791c62761152d0c79bb0604c104a5fb6f4eb0703f3154bb3db081018054965194518816600160c01b026001600160c01b0395909916600160a01b9081026001600160c01b0319909816948b169490941796909617939093169690961790935590517f036b6384b5eca791c62761152d0c79bb0604c104a5fb6f4eb0703f3154bb3db1909101805494519093169091026001600160e01b0319909316931692909217179055565b600281815481106106e357600080fd5b6000918252602090912060029091020180546001909101546001600160a01b038216925063ffffffff600160a01b8304169167ffffffffffffffff600160c01b9091048116911684565b3360009081526020819052604090205460ff16151560011461074e57600080fd5b33600090815260066020526040902054600267ffffffffffffffff8416101561077657600080fd5b6040805160808101825233815263ffffffff8087166020830190815267ffffffffffffffff8088169484019485528681166060850190815260028054600181018255600082905295519581027f405787fa12a823e0f2b7631cc41b3ba8828b3321ca811111fa75cd3aa3bb5ace81018054955198518516600160c01b026001600160c01b0399909716600160a01b026001600160c01b03199096166001600160a01b03989098169790971794909417969096169390931790935590517f405787fa12a823e0f2b7631cc41b3ba8828b3321ca811111fa75cd3aa3bb5acf90910180549190921667ffffffffffffffff1990911617905580548290811061087e5761087e610b0b565b906000526020600020906002020160000160149054906101000a900463ffffffff1663ffffffff16600282815481106108b9576108b9610b0b565b600091825260209091206002918202015481546001600160a01b03909116917fe915c4e10211fa81276814982659a75da8cf9c1a278bb46c0f06559c3534fef8918590811061090a5761090a610b0b565b600091825260209182902060029091020154604051600160c01b90910467ffffffffffffffff1681520160405180910390a350505050565b6005818154811061095257600080fd5b6000918252602090912060029091020180546001909101546001600160a01b038083169350600160a01b80840463ffffffff1693600160c01b900467ffffffffffffffff9081169392831692919091041685565b600181815481106109b657600080fd5b6000918252602090912001546001600160a01b0316905081565b6003818154811061095257600080fd5b80356001600160a01b03811681146109f757600080fd5b919050565b803563ffffffff811681146109f757600080fd5b803567ffffffffffffffff811681146109f757600080fd5b600080600080600060a08688031215610a4057600080fd5b610a49866109e0565b9450610a57602087016109fc565b9350610a6560408701610a10565b9250610a73606087016109e0565b9150610a8160808701610a10565b90509295509295909350565b600060208284031215610a9f57600080fd5b5035919050565b600060208284031215610ab857600080fd5b610ac1826109e0565b9392505050565b600080600060608486031215610add57600080fd5b610ae6846109fc565b9250610af460208501610a10565b9150610b0260408501610a10565b90509250925092565b634e487b7160e01b600052603260045260246000fdfea26469706673582212200152197fcd653e0b245c4639b7e8182bb8b7d2dd1ba57977ecb43c5669d2094e64736f6c634300080a0033",
    "sourcePath": "/home/dakeh/Escritorio/rebornsdc/contracts/Transacciones.sol",
    "compiler": {
        "name": "solc",
        "version": "0.8.10+commit.fc410830"
    },
    "functionHashes": {
        "comprarEnergia(address,uint32,uint64,address,uint64)": "4adfbb03",
        "direccionProductor()": "724df77e",
        "energiaProducida(uint256)": "6e7c3a71",
        "indiceCompra(address)": "5ccc0e83",
        "indiceVenta(address)": "b3ab499b",
        "ordenesCompra(uint256)": "9e002577",
        "ordenesVenta(uint256)": "51d7c9b0",
        "registrar()": "2b20e397",
        "usuario(uint256)": "869ddd42",
        "venderEnergia(uint32,uint64,uint64)": "6c860435"
    },
    "gasEstimates": {
        "creation": {
            "codeDepositCost": "580600",
            "executionCost": "24849",
            "totalCost": "605449"
        },
        "external": {
            "comprarEnergia(address,uint32,uint64,address,uint64)": "infinite",
            "direccionProductor()": "2359",
            "energiaProducida(uint256)": "6941",
            "indiceCompra(address)": "2586",
            "indiceVenta(address)": "2607",
            "ordenesCompra(uint256)": "7007",
            "ordenesVenta(uint256)": "6925",
            "registrar()": "72910",
            "usuario(uint256)": "4658",
            "venderEnergia(uint32,uint64,uint64)": "infinite"
        }
    }
}